{
  "contractName": "Greeter",
  "abi": [
    {
      "inputs": [],
      "payable": false,
      "stateMutability": "nonpayable",
      "type": "constructor"
    },
    {
      "anonymous": false,
      "inputs": [
        {
          "indexed": false,
          "internalType": "string",
          "name": "greeting",
          "type": "string"
        }
      ],
      "name": "GreeterUpdated",
      "type": "event"
    },
    {
      "constant": false,
      "inputs": [
        {
          "internalType": "string",
          "name": "newGreeting",
          "type": "string"
        }
      ],
      "name": "setGreeting",
      "outputs": [
        {
          "internalType": "string",
          "name": "",
          "type": "string"
        }
      ],
      "payable": false,
      "stateMutability": "nonpayable",
      "type": "function"
    },
    {
      "constant": true,
      "inputs": [],
      "name": "getGreeting",
      "outputs": [
        {
          "internalType": "string",
          "name": "",
          "type": "string"
        }
      ],
      "payable": false,
      "stateMutability": "view",
      "type": "function"
    },
    {
      "constant": true,
      "inputs": [],
      "name": "getOwner",
      "outputs": [
        {
          "internalType": "address",
          "name": "",
          "type": "address"
        }
      ],
      "payable": false,
      "stateMutability": "view",
      "type": "function"
    }
  ],
  "bytecode": "0x608060405260405180602001604052806000815250600190805190602001906100299291906100a2565b5034801561003657600080fd5b50336000806101000a81548173ffffffffffffffffffffffffffffffffffffffff021916908373ffffffffffffffffffffffffffffffffffffffff160217905550604051806020016040528060008152506001908051906020019061009c9291906100a2565b50610147565b828054600181600116156101000203166002900490600052602060002090601f016020900481019282601f106100e357805160ff1916838001178555610111565b82800160010185558215610111579182015b828111156101105782518255916020019190600101906100f5565b5b50905061011e9190610122565b5090565b61014491905b80821115610140576000816000905550600101610128565b5090565b90565b61064b806101566000396000f3fe608060405234801561001057600080fd5b50600436106100415760003560e01c8063893d20e814610046578063a413686214610090578063fe50cc72146101c4575b600080fd5b61004e610247565b604051808273ffffffffffffffffffffffffffffffffffffffff1673ffffffffffffffffffffffffffffffffffffffff16815260200191505060405180910390f35b610149600480360360208110156100a657600080fd5b81019080803590602001906401000000008111156100c357600080fd5b8201836020820111156100d557600080fd5b803590602001918460018302840111640100000000831117156100f757600080fd5b91908080601f016020809104026020016040519081016040528093929190818152602001838380828437600081840152601f19601f820116905080830192505050505050509192919290505050610270565b6040518080602001828103825283818151815260200191508051906020019080838360005b8381101561018957808201518184015260208101905061016e565b50505050905090810190601f1680156101b65780820380516001836020036101000a031916815260200191505b509250505060405180910390f35b6101cc61040d565b6040518080602001828103825283818151815260200191508051906020019080838360005b8381101561020c5780820151818401526020810190506101f1565b50505050905090810190601f1680156102395780820380516001836020036101000a031916815260200191505b509250505060405180910390f35b60008060009054906101000a900473ffffffffffffffffffffffffffffffffffffffff16905090565b60603373ffffffffffffffffffffffffffffffffffffffff166000809054906101000a900473ffffffffffffffffffffffffffffffffffffffff1673ffffffffffffffffffffffffffffffffffffffff1614610334576040517f08c379a000000000000000000000000000000000000000000000000000000000815260040180806020018281038252601b8152602001807f4f776e61626c653a206f776e65722073686f756c64206d61746368000000000081525060200191505060405180910390fd5b816001908051906020019061034a929190610571565b507fb4289b5c0b3a5fe1a51193a980f5a123e9c7e18c80bdb11f719edc433772d728600160405180806020018281038252838181546001816001161561010002031660029004815260200191508054600181600116156101000203166002900480156103f75780601f106103cc576101008083540402835291602001916103f7565b820191906000526020600020905b8154815290600101906020018083116103da57829003601f168201915b50509250505060405180910390a1819050919050565b60603373ffffffffffffffffffffffffffffffffffffffff166000809054906101000a900473ffffffffffffffffffffffffffffffffffffffff1673ffffffffffffffffffffffffffffffffffffffff16146104d1576040517f08c379a000000000000000000000000000000000000000000000000000000000815260040180806020018281038252601b8152602001807f4f776e61626c653a206f776e65722073686f756c64206d61746368000000000081525060200191505060405180910390fd5b60018054600181600116156101000203166002900480601f0160208091040260200160405190810160405280929190818152602001828054600181600116156101000203166002900480156105675780601f1061053c57610100808354040283529160200191610567565b820191906000526020600020905b81548152906001019060200180831161054a57829003601f168201915b5050505050905090565b828054600181600116156101000203166002900490600052602060002090601f016020900481019282601f106105b257805160ff19168380011785556105e0565b828001600101855582156105e0579182015b828111156105df5782518255916020019190600101906105c4565b5b5090506105ed91906105f1565b5090565b61061391905b8082111561060f5760008160009055506001016105f7565b5090565b9056fea265627a7a72315820f3e7dbf3677d1c3bcd564187310e964081feeb718b05800b308f684f594bff4b64736f6c63430005100032",
  "source": "// SPDX-License-Identifier: MIT\r\npragma solidity >=0.4.21 <0.7.0;\r\n\r\ncontract Greeter{\r\n    address private owner ;\r\n    string private greeting = \"\";\r\n    event GreeterUpdated(string greeting);\r\n    constructor() public {\r\n        owner = msg.sender;\r\n        greeting='';\r\n    }\r\n    modifier onlyOwner(){\r\n        require(owner == msg.sender,'Ownable: owner should match');\r\n        _;\r\n    }\r\n    function setGreeting(string memory newGreeting) public onlyOwner returns(string memory){\r\n        greeting = newGreeting ;\r\n        emit GreeterUpdated(greeting) ;\r\n        return newGreeting ;\r\n    }\r\n    function getGreeting() public view onlyOwner returns(string memory){\r\n        return greeting ;\r\n    }\r\n    function getOwner() public view returns(address){\r\n        return owner;\r\n    }\r\n    \r\n}\r\n",
  "sourcePath": "C:\\Users\\ankur\\Documents\\Github Repository\\hello-world-solidity\\contracts\\Greeter.sol",
  "compiler": {
    "name": "solc",
    "version": "0.5.16+commit.9c3226ce.Emscripten.clang"
  },
  "schemaVersion": "3.4.4",
  "updatedAt": "2022-01-21T11:19:17.607Z",
  "devdoc": {
    "methods": {}
  },
  "userdoc": {
    "methods": {}
  }
}